:020000040800F2
:100000003808002045010008750F0008770F000828
:100010007B0F00087F0F0008830F0008000000001E
:10002000000000000000000000000000870F000832
:10003000890F0008000000008B0F00088D0F0008DA
:100040005F0100085F0100085F0100085F01000810
:100050005F0100085F0100085F0100085F01000800
:100060005F0100085F0100085F0100085F010008F0
:100070005F0100085F0100085F0100085F010008E0
:100080005F0100085F0100085F0100085F010008D0
:100090005F0100085F0100085F0100085F010008C0
:1000A0005F0100085F0100085F0100085F010008B0
:1000B0005F0100085F0100085F0100085F010008A0
:1000C0005F0100085F0100085F0100085F01000890
:1000D0005F0100085F0100085F010008950F00083C
:1000E0005F0100085F0100085F0100085F01000870
:1000F0005F0100085F0100085F0100085F01000860
:100100005F0100085F0100085F0100085F0100084F
:100110005F0100085F0100085F0100085F0100083F
:100120005F0100085F0100085F0100085F0100082F
:10013000DFF80CD001F0BCFE004800472D0F00088E
:10014000380800200648804706480047FEE7FEE7DB
:10015000FEE7FEE7FEE7FEE7FEE7FEE7FEE7FEE777
:1001600047020008310100080CB500200190009002
:100170006C48006840F480306A49086000BF6948F4
:10018000006800F4003000900198401C0190009835
:1001900018B90198B0F5A06FF1D16248006800F479
:1001A000003010B10120009001E000200090009884
:1001B000012843D15C48006840F010005A490860AB
:1001C0000846006820F0030008600846006840F018
:1001D0000200086053484068524948600846406839
:1001E00048600846406840F48060486008464068BF
:1001F00020F47C1048600846406840F4E8104860ED
:100200000846006840F08070086000BF45480068FC
:1002100000F000700028F9D04248406820F0030048
:10022000404948600846406840F00200486000BF0E
:100230003C48406800F00C000828F9D10CBD10B50E
:10024000FFF792FF10BD10B53648006840F001007E
:1002500034490860084640683449084031494860DC
:1002600008460068324908402E4908600846006880
:1002700020F4802008600846406820F4FE004860B2
:100280004FF41F008860FFF7DAFF4FF00060294944
:10029000086010BD10B5002100200022214B5B68D2
:1002A00003F00C0121B1042906D0082928D107E068
:1002B000214B224C236027E01F4B204C236023E07E
:1002C000184B5B6803F47010164B5B6803F48032C4
:1002D000022303EB904022B9194B4343174C236090
:1002E0000DE0104B5B6803F4003323B1144B434320
:1002F000124C236003E0104B4343104C236003E097
:100300000D4B0E4C236000BF00BF064B5B68C3F370
:1003100003130C4CE15C094B1B68CB40074C23607A
:1003200010BD000000100240002002400000FFF855
:10033000FFFFF6FE08ED00E000127A00000000204A
:1003400000093D000400002031490143314A116099
:10035000704770B5002100230F22C47804B32D4CE0
:10036000246804F4E064C4F5E064210AC1F10403E4
:10037000CA40447804FA03F1847814402143090107
:10038000254C0678A155047804F01F050124AC40E3
:1003900005786D11AD0005F1E025C5F8004109E0D3
:1003A000047804F01F050124AC401C4D067876113A
:1003B00045F8264070BD1A4A0A400243154B1B1FE0
:1003C0001A60704739B1134A121D12680243114B6B
:1003D0001B1D1A6006E00F4A121D126882430D4B66
:1003E0001B1D1A607047042808D14FF0E0210969ED
:1003F00041F004014FF0E022116107E04FF0E021ED
:10040000096921F004014FF0E022116170470000FA
:100410000000FA050CED00E000E400E080E100E0FF
:1004200080FFFF1F10B50446CC48844208D101214B
:10043000042000F02DFB0021042000F029FB46E001
:10044000C748844208D10121082000F021FB002187
:10045000082000F01DFB3AE0C248844208D1012187
:10046000102000F015FB0021102000F011FB2EE001
:10047000BD48844208D10121202000F009FB002161
:10048000202000F005FB22E0B848844208D1012179
:10049000402000F0FDFA0021402000F0F9FA16E0BB
:1004A000B348844208D10121802000F0F1FA0021F4
:1004B000802000F0EDFA0AE0AE48844207D1012125
:1004C000801500F0E5FA0021A01500F0E1FA10BD5A
:1004D00010B50121084600F0DBFA0021012000F0F0
:1004E000D7FA10BD2DE9F041024600250026002074
:1004F00000230024002791F803C00CF00F0591F8A9
:1005000003C00CF0100CBCF1000F03D091F802C036
:100510004CEA050591F800C0BCF1000F31D0146819
:1005200000202BE04FF0010C0CFA00F3B1F800C0F2
:100530000CEA03069E4220D183004FF00F0C0CFA08
:1005400003F7BC4305FA03FC4CEA040491F803C02A
:10055000BCF1280F06D14FF0010C0CFA00FCC2F8D8
:1005600014C00AE091F803C0BCF1480F05D14FF068
:10057000010C0CFA00FCC2F810C0401C0828D1D3B2
:100580001460B1F800C0BCF1FF0F34DD54680020E6
:100590002EE000F1080C4FF0010808FA0CF3B1F856
:1005A00000C00CEA03069E4221D183004FF00F0CDD
:1005B0000CFA03F7BC4305FA03FC4CEA040491F877
:1005C00003C0BCF1280F05D100F1080C08FA0CF8A3
:1005D000C2F8148091F803C0BCF1480F07D100F1B4
:1005E000080C4FF0010808FA0CF8C2F81080401C03
:1005F0000828CED35460BDE8F0814FF6FF7101802A
:10060000022181700421C170704702460020936866
:100610000B400BB1012000E00020704701468868C4
:1006200080B2704702460020D3680B400BB1012016
:1006300000E0002070470146C86880B27047016141
:100640007047416170470AB1016100E04161704744
:10065000C16070474FF480320A43826181618261D8
:1006600082698269704702460020434B18684FF642
:100670008073184040EA021008433F4B18607047EF
:100680003E49C8617047F0B50A46002300240021A6
:10069000002500F00046B6F1004F02D1364EF16958
:1006A00001E0354E7168C0F3034583B200F4401693
:1006B000B6F5401F08D121F070612F4E766826F004
:1006C00070662D4F7E6012E000F48016B6F5801F34
:1006D00006D1032606FA05F4A14341F0706106E055
:1006E000460D360103FA06F6B14341F0706122B1BE
:1006F000460D360103FA06F6314300F00046B6F126
:10070000004F02D11C4EF16101E01B4E7160F0BD43
:1007100030B500228B071C0F0F2303FA04F2164B8F
:1007200008338C1053F824309343134C08348D1045
:1007300044F8253023468C1053F824308C07240FBE
:1007400000FA04F423430C4C08348D1044F825308F
:1007500030BD0A49DC3108607047000000080140E4
:10076000000C01400010014000140140001801403D
:10077000001C014000200140000001400000204218
:10078000DF48006840F00100DD4908600846406825
:10079000DC490840DA49486008460068DA49084000
:1007A000D74908600846006820F4802008600846A1
:1007B000406820F4FE0048604FF41F0088607047D6
:1007C000CF49096821F48031CD4A1160114609688A
:1007D00021F480211160B0F5803F03D0B0F5802F67
:1007E0000ED106E0C649096841F48031C44A11605F
:1007F00007E0C349096841F4A021C14A116000E043
:1008000000BF00BF704710B5014600220023002042
:100810004A11012A02D1BA4C236806E0022A02D109
:10082000B74C236A01E0B64C636A01F01F02012451
:1008300094401C400CB1012000E0002010BD38B5F0
:10084000002000900024002500BF3120FFF7DBFFCF
:1008500005460098401C00900098B0F5A06F01D0AC
:10086000002DF2D03120FFF7CEFF08B1012400E0C7
:100870000024204638BD01460020A14A106820F01F
:10088000F80040EAC10010607047A0490860704756
:10089000024600209A4B586820F47C1042EA01037B
:1008A0001843974B5860704798490866704701464F
:1008B0000020934A506820F00300084350607047BE
:1008C0008F48406800F00C007047014600208C4AB9
:1008D000506820F0F0000843506070470146002047
:1008E000874A506820F4E060084350607047014632
:1008F0000020834A506820F4605040EAC1005060F4
:10090000704729B17E4A527A02437D4B5A7204E005
:100910007B4A527A82437A4B5A7270477B49D8316C
:100920000860704701460020754A506820F4404036
:100930000843506070470021714A20321170704A9C
:1009400082F82010012802D004280AD104E00121F5
:100950006B4A2032117005E00521694A203211707E
:1009600000E000BF00BF70476949086070476449F4
:10097000096A0143624A1162704765494439086057
:10098000704730B500210022002400235C4D6D68C3
:1009900005F00C0121B1042905D0082923D105E077
:1009A0005C4D056022E05B4D05601FE0544D6D68B5
:1009B00005F47012524D6D6805F48034022505EB84
:1009C00092421CB9544D554305600BE04C4D6D6887
:1009D00005F400351DB1504D5543056002E04D4D05
:1009E0005543056002E04B4D056000BF00BF444D1C
:1009F0006D6805F0F0010909484D6B5C0568DD4044
:100A000045603F4D6D6805F4E061090A434D6B5C3C
:100A10004568DD4085603A4D6D6805F46051C90A4E
:100A20003E4D6B5C4568DD40C560354D6D6805F435
:100A30004041890B3A4D6B5CC568B5FBF3F5056128
:100A400030BD29B12E4A526902432D4B5A6104E050
:100A50002B4A526982432A4B5A61704729B1284A6E
:100A600092690243264B9A6104E0254A92698243C7
:100A7000234B9A61704729B1214AD2690243204B26
:100A8000DA6104E01E4AD26982431D4BDA61704785
:100A900029B11B4AD2680243194BDA6004E0184AB4
:100AA000D2688243164BDA60704729B1144A126942
:100AB0000243134B1A6104E0114A12698243104B3E
:100AC0001A61704712494039086070470F49C8647D
:100AD00070470B49C87170470948406A40F0807000
:100AE00007494862704701460020054A92680A405B
:100AF0000AB1012000E00020704701498872704768
:100B0000001002400000FFF8FFFFF6FE0000424226
:100B10008004424200127A0000093D0014000020C7
:100B20002400002010B50446FB48844209D101216D
:100B30008803FFF7ADFF00214FF48040FFF7A8FFC7
:100B400032E0F648844209D101214804FFF7ADFFA5
:100B500000214FF40030FFF7A8FF25E0F048844261
:100B600009D101218804FFF7A0FF00214FF4802064
:100B7000FFF79BFF18E0EB48844209D10121C8042C
:100B8000FFF793FF00214FF40020FFF78EFF0BE0EB
:100B9000E548844208D101210805FFF786FF0021BE
:100BA0004FF48010FFF781FF10BD2DE9F04786B0AC
:100BB00005460E460024A24600BFA1460027B08984
:100BC00000B100BF2F462C8A4CF6FF700440F0881D
:100BD00004432C82AC894EF6F3100440B08831896E
:100BE0000843718908430443AC81AC8A4FF6FF4047
:100BF0000440B0890443AC8201A8FFF7C2FEC64896
:100C0000874202D1DDF810A001E0DDF80CA0A88930
:100C100000F4004040B10AEBCA0000EB0A10316852
:100C20004900B0FBF1F807E00AEBCA0000EB0A103C
:100C300031688900B0FBF1F86420B8FBF0F00401E2
:100C40002009642101FB1089A88900F4004040B10B
:100C5000322000EBC900B0FBF1F000F007000443C4
:100C600008E0322000EB09106421B0FBF1F000F045
:100C70000F0004432C8106B0BDE8F0874FF41651F5
:100C8000016000218180C18001810C21418100210E
:100C90008181704710B502460020108A4FF2FF0391
:100CA00018400B884C8823438C882343CC882343EB
:100CB0001843108210BD0021018041808180C180D5
:100CC000704721B1828942F40052828104E0828916
:100CD0004DF6FF731A4082817047F0B50346002439
:100CE00000260025002040F66A17B94200D100BF57
:100CF0001846C1F3421401F01F06012707FA06F552
:100D0000012C01D10C3004E0022C01D1103000E0A4
:100D100014301AB107682F43076002E00768AF4339
:100D20000760F0BD1AB1838A0B43838202E0838A95
:100D30008B4383827047028A4FF6F0731A40028217
:100D4000028A0A430282704782894FF2FF731A4077
:100D5000828182890A438281704721B1828942F06F
:100D60000202828104E082894FF6FD731A4082817B
:100D70007047028A4FF6DF731A400282028A0A43E2
:100D80000282704721B1028A42F48042028204E06A
:100D9000028A4BF6FF731A4002827047C1F30802C1
:100DA0008280704701468888C0F3080070478189B7
:100DB00041F0010181817047028BD2B20283028B24
:100DC00042EA012202837047028B02F47F420283CF
:100DD000028B0A430283704721B1828A42F02002CB
:100DE000828204E0828A4FF6DF731A408282704763
:100DF00021B1828A42F01002828204E0828A4FF698
:100E0000EF731A408282704721B1828A42F0080251
:100E1000828204E0828A4FF6F7731A40828270471A
:100E200021B1828942F40042828103E08289C2F3C7
:100E30000E028281704721B1828A42F4006282826E
:100E400004E0828A4FF2FF731A4082827047828ADE
:100E50004FF6FB731A408282828A0A43828270476D
:100E600021B1828A42F00202828204E0828A4FF635
:100E7000FD731A408282704702460020B1F5007F60
:100E800000D100BF13880B400BB1012000E000200F
:100E9000704701F40072B2F5007F00D100BFCA4371
:100EA0000280704770B50246002400230025002010
:100EB00040F66A16B14200D100BFC1F3421501F0FD
:100EC0001F03012606FA03F3012D02D19689334050
:100ED00006E0022D02D1168A334001E0968A3340A3
:100EE0000C12012606FA04F41688344013B10CB132
:100EF000012000E0002070BD10B50022002340F664
:100F00006A14A14200D100BF0A1201249440A3B286
:100F1000DC43048010BD0000003801400044004064
:100F200000480040004C00400050004000F082F8B3
:100F300000F0DEF800F0B4F900F0E5FD03A000F0E9
:100F4000C9FF00F081FE00BFFEE700000D0AD2B02D
:100F5000BBF02057462D455350383236362057695E
:100F60004669C4A3BFE9B2E2CAD4C0FDB3CC0D0A3E
:100F700000000000704700BFFEE700BFFEE700BFB3
:100F8000FEE700BFFEE770477047704710B500F0FE
:100F9000F6F810BD10B540F225512048FFF782FF4A
:100FA000D8B11E48FFF7FEFEC4B21D48B0F80004D9
:100FB000C0F30E0040F2FF3188420EDA1849B1F852
:100FC0000014C1F30E00411C154AB2F8002461F36D
:100FD0000E021349A1F800240C5440F224410F489A
:100FE000FFF760FF012817D10D48B0F8000420F486
:100FF000004000F500400A49A1F800040748FFF747
:10100000D1FEC4B207A1064800F02AFF08B10120B2
:1010100000E000200649087010BD000000480040B4
:1010200034000020434C4F5345440D0A000000009B
:101030002C00002000B585B001218803FFF70EFDCC
:1010400001210420FFF70AFD4FF40070ADF81000F5
:1010500018208DF8130003208DF8120004A92248EF
:10106000FFF740FA4FF48060ADF8100004208DF8CF
:10107000130004A91C48FFF735FA4FF4E130009043
:101080000020ADF80400ADF80600ADF80800ADF89A
:101090000C000C20ADF80A0069461448FFF785FDE6
:1010A00001211248FFF70DFE05B000BD70B50446E2
:1010B0000D46E1B20D48FFF771FE00BF80210B48DD
:1010C000FFF7DAFE0028F9D0204670BD10B50446BF
:1010D00000BF20210548FFF7CFFE0028F9D00348C4
:1010E000FFF760FE10BD000000080140003801401D
:1010F00030B527480068274AB0FBF2F1B1F1807F94
:1011000001D301201DE021F07F40401E4FF0E0227E
:10111000506150170F22002807DA13071D0E1E4BCF
:1011200000F00F04241F1D5503E013071C0E1B4B7A
:101130001C5400BF00204FF0E02290610720106196
:10114000002008B100BFFEE74FF0E020006920F06A
:1011500001004FF0E021086130BD01B51049009851
:1011600008604FF0E020006940F001004FF0E021FE
:10117000086100BF0A4800680028FBD108BD084884
:10118000006820B106480068401E054908607047A5
:101190000000002040420F0018ED00E000E400E0F5
:1011A0002800002008B54FF4A060FFF7CDF82720F5
:1011B0008DF8000000208DF801008DF8020001205C
:1011C0008DF803006846FFF7C4F808BD00B585B088
:1011D00001218804FFF74FFC01210820FFF73EFCA6
:1011E0004FF48060ADF8100018208DF81300032034
:1011F0008DF8120004A9F748FFF774F94FF4006066
:10120000ADF8100004208DF8130004A9F148FFF791
:1012100069F94FF4E13000900020ADF80400ADF81A
:101220000600ADF80800ADF80C000C20ADF80A007F
:101230006946E948FFF7B9FC012240F22551E6482A
:10124000FFF74BFD012240F22441E348FFF745FD43
:10125000FFF7A8FF0121E048FFF733FD05B000BD0F
:1012600008B501210802FFF7F9FB4FF40050ADF873
:10127000000010208DF8030003208DF8020069465D
:10128000D648FFF72FF901210802FFF7E7FB4FF4DB
:101290008040ADF800006946D048FFF723F908BD4B
:1012A00010B5FFF7DDFFFFF791FF4FF48041CB480A
:1012B000FFF7C5F94FF40051C848FFF7C2F910BD58
:1012C00010B54FF48041C548FFF7BBF9C448FFF79C
:1012D00044FF4FF48041C148FFF7B1F910BD2DE93B
:1012E000F04106460C4615461F46BE48B0F80004BD
:1012F0006FF30E00BB49A1F800043246BAA1B6480C
:1013000000F06BFB1CB915B90120BDE8F0814FF46A
:101310007A7107FB01F0FFF720FF0020B149B1F817
:101320000014C1F30E01AF4A50541146B0A000F0B2
:10133000D1FDB4B1ADB12146AA4800F091FD08B18C
:10134000012000E0002040B92946A64800F088FDB1
:1013500008B1012000E0002008B10120D5E70020FD
:10136000D3E744B121469F4800F07AFD08B101203F
:10137000CBE70020C9E729469A4800F071FD08B183
:101380000120C2E70020C0E710B500244FF48041DF
:101390009248FFF754F99748FFF7DFFE0CE04FF44F
:1013A000FA73002294A195A0FFF799FF00B110BD38
:1013B000FFF786FF601CC4B20A2CF0DB00BFF6E723
:1013C00010B5044624B1012C0AD0022C18D10FE02C
:1013D00040F6C4138AA288A18CA0FFF780FF10BD3D
:1013E00040F6C41386A284A18BA0FFF778FFF6E72E
:1013F00040F6C41382A280A18AA0FFF770FFEEE737
:101400000020ECE730B59FB004460D462B4622463F
:1014100087A101A800F06EFD41F28833002276A179
:1014200001A8FFF75CFF1FB030BD70B5A0B0044647
:101430000D4616462B46224682A102A8009600F0D1
:1014400059FD4FF47A7300226BA102A8FFF747FF02
:1014500020B070BD10B586B004460CB1012000E08C
:10146000002002467DA101A800F044FD4FF4FA736C
:10147000002261A101A8FFF732FF06B010BDF0B550
:10148000B9B006460F4614461D46642120A800F058
:10149000DCFC16B1012E10D107E03B4673A274A10B
:1014A00020A8009400F026FD08E03B4674A270A13D
:1014B00020A8009400F01EFD00E000BF00BF052D35
:1014C00006DA20AB2A466FA102A800F013FD04E063
:1014D00020AA71A102A800F00DFD4FF47A6372A258
:1014E00045A102A8FFF7FBFE39B0F0BD70B5BCB056
:1014F00004460D461646FCB12B4601226EA11EA8DD
:1015000000F0F8FC324671A1684600F0F3FC4FF49D
:10151000FA73002238A11EA8FFF7E1FE50B14FF484
:10152000FA73002234A16846FFF7D9FE10B10120FA
:101530003CB070BD0020FBE72B4600225EA11EA838
:1015400000F0D8FC4FF4FA7300222BA11EA8FFF77D
:10155000C6FEEDE710B54FF4FA73002226A15FA096
:10156000FFF7BDFEA0B161A11E4800F079FC08B1F3
:10157000022010BD60A11B4800F072FC08B10320DE
:10158000F7E760A1174800F06BFC08B10420F0E712
:101590000020EEE710B500244FF4FA73002216A1E4
:1015A0004EA0FFF79CFE002812D059A10D4800F074
:1015B00057FC10B144F0010401E024F0010458A1EB
:1015C000084800F04DFC10B144F00204B2E0AFE076
:1015D000CEE00000000C0140004800400020014027
:1015E00020A107003400002025730D0A0000000030
:1015F0002573000040420F004F4B00004154000093
:101600006E6F206368616E676500000041542B4374
:10161000574D4F44453D310041542B43574D4F44A6
:10162000453D320041542B43574D4F44453D330017
:1016300041542B43574A41503D222573222C2225E9
:101640007322000041542B43575341503D222573D0
:10165000222C222573222C312C25640041542B434B
:1016600049504D55583D256400000000544350003A
:10167000222573222C222573222C257300000000C2
:101680005544500041542B43495053544152543D0A
:1016900025642C257300000041542B4349505354BA
:1016A0004152543D25730000414C5245415920435D
:1016B0004F4E4E454354000041542B43495053452F
:1016C000525645523D25642C2573000041542B434E
:1016D000495053544F3D25730000000041542B43A3
:1016E0004950535441545553000000005354415441
:1016F00055533A320D0A00005354415455533A336E
:101700000D0A00005354415455533A340D0A000059
:101710002B4349505354415455533A302C00000048
:101720002B4349505354415455533A312C00000037
:1017300024F0020464A1684800F092FB10B144F068
:10174000040401E024F0040464A1634800F088FB71
:1017500010B144F0080401E024F0080463A15E48DD
:1017600000F07EFB10B144F0100401E024F01004FE
:10177000204610BD2DE9F04105460F464FF4FA739F
:101780000022AFF28C115DA0FFF7A9FD5EA15248C7
:1017900000F066FB06460EB1B61D02E00020BDE873
:1017A000F081002409E0305D2855285D222802D10F
:1017B0000020285503E0601CC4B2BC42F3DB00BF2C
:1017C0000120ECE710B54FF4FA730022AFF2D81104
:1017D0004FA0FFF784FD08B9002010BD4FF4FA7345
:1017E0004FA2AFF2EC114FA0FFF779FDF5E710B56E
:1017F0004F48FFF7B2FC4FA14F4800F0EEF84F48BA
:10180000FFF7ABFC10BD2DE9F04186B007460C4652
:1018100015461E464FF0000847B12246AFF2302170
:10182000454800F0DAF84FF001081CE0052E06DA12
:10183000AB1C324642A101A800F05CFB04E0AA1CEC
:1018400044A101A800F056FB4FF47A73002245A191
:1018500001A8FFF744FD4FF47A73002242A120460D
:10186000FFF73DFD8046404606B0BDE8F08170B50B
:10187000044600251848B0F800046FF30E0016491E
:10188000A1F800040846B0F8000420F40040A1F8D4
:10189000000400BF1048B0F80004C00B0028F9D0C5
:1018A00000200D49B1F80014C1F30E010A4A50544A
:1018B0000CB1154605E02EA1074800F0D1FA00B1A1
:1018C000054D284670BD00002B43495053544154E8
:1018D00055533A322C000000340000202B4349506D
:1018E0005354415455533A332C0000002B43495074
:1018F0005354415455533A342C00000041542B4367
:101900004946535200000000415049502C2200002B
:1019100041542B4349504D4F44453D310000000098
:101920003E00000041542B43495053454E440000B3
:1019300040420F002B2B2B000048004020A1070045
:1019400041542B43495053454E443D25642C256456
:101950000000000041542B43495053454E443D255F
:10196000640000003E20000053454E44204F4B00D1
:101970002B49504400000000F0B503460D461646C2
:10198000002729460A2E03D0002008702846F0BD03
:1019900033B9302001F8010B002008702846F6E723
:1019A000002B03DA2D2001F8010B5B4242F210728A
:1019B0000DE093FBF2F404B937B104F1300001F803
:1019C000010B04FB123301270A2092FBF0F2002ADC
:1019D000EFDC002008702846D9E70FB470B586B058
:1019E00006460CA8019073E00B9800785C281CD187
:1019F0000B98401C0B9000786E2809D072280FD1EC
:101A00000D213046FFF7CAF90B98401C0B900BE0F4
:101A10000A213046FFF7C2F90B98401C0B9003E0F7
:101A20000B98401C0B9000BF4BE00B9800782528CA
:101A300040D10B98401C0B900078642818D0732874
:101A400033D1019810C801900BE021783046FFF7A0
:101A5000A5F900BF80213046FFF70EFA0028F9D023
:101A6000641C20780028F0D10B98401C0B9020E0DB
:101A7000019820C801900A2202A92846FFF77CFF9E
:101A800002AC0BE021783046FFF788F900BF8021D7
:101A90003046FFF7F1F90028F9D0641C20780028BF
:101AA000F0D10B98401C0B9003E00B98401C0B905E
:101AB00000BF06E00B9810F8011B0B903046FFF7B3
:101AC0006DF900BF80213046FFF7D6F90028F9D024
:101AD0000B980078002887D106B070BC5DF814FB25
:101AE00008B501212020FEF7B9FF4020ADF8000025
:101AF00010208DF8030003208DF80200694651483C
:101B0000FEF7F0FC08BD10B5FFF7EAFF40214D4895
:101B1000FEF795FD10BD08B54020ADF80000482047
:101B20008DF8030069464748FEF7DCFC08BD08B5A0
:101B30004020ADF8000010208DF8030003208DF840
:101B4000020069463F48FEF7CDFC08BD70B5002590
:101B5000002424E000BF40213A48FEF756FD00284B
:101B6000F9D02820FFF7F9FA40213648FEF74DFD5D
:101B700001280DD100BF40213248FEF746FD012863
:101B8000F9D0C4F1070101208840C0B2054304E048
:101B9000C4F10701012088408543601CC4B2082CB1
:101BA000D8DB284670BD10B50446FFF7C0FF4021C2
:101BB0002448FEF746FD44F25060FFF7CEFA40217C
:101BC0002048FEF73CFD1E20FFF7C7FAFFF7A3FFF2
:101BD00040211C48FEF719FD80BB00BF4021194879
:101BE000FEF713FD0028F9D000BF40211548FEF78D
:101BF0000CFD0128F9D0FFF7A9FF2070FFF7A6FF21
:101C00006070FFF7A3FFA070FFF7A0FFE070FFF781
:101C10009DFF2071FFF78BFF40210A48FEF70FFD63
:101C2000207861780844A1780844E1780844217953
:101C3000884201D1012010BD0020FCE7FFE7002011
:101C4000F9E70000001401409EB0642105A800F0EF
:101C5000FCF83CA000F03EF94FF400514048FEF77C
:101C6000EEFCFFF791FB0020FFF7AAFB00BF3DA1B0
:101C70003FA0FFF7C7FB0028F9D00020FFF7EAFBE1
:101C800000BF05233CA23EA10020FFF7F8FB00287F
:101C9000F7D000BFFFF796FD0028FBD03BA000F077
:101CA00019F94DE003A8FFF77EFF01280ED19DF83A
:101CB0000F009DF80E10CDE900109DF80D309DF835
:101CC0000C2038A105A800F015F903E044A105A8EF
:101CD00000F010F905A947A000F0FCF80523002248
:101CE00005A90120FFF78FFD4348FFF736FA434867
:101CF0000078002824D0FFF77AFD00BFFFF72AFC08
:101D00000446002CFAD0042C15D13DA000F0E2F8D6
:101D100000BF14A116A0FFF775FB0028F9D000BF83
:101D2000052315A216A10020FFF7A9FB0028F7D074
:101D30003BA000F0CFF800BFFFF744FD0028FBD028
:101D4000B0E700000D0AD5FDD4DAC5E4D6C32045BE
:101D5000535038323636202E2E2E2E2E2E0D0A00BF
:101D60000020014077696C646669726500000000BC
:101D700041333034000000003830383000000000BB
:101D80003139322E3136382E312E39000D0AC5E464
:101D9000D6C3204553503832363620CDEAB1CF0D68
:101DA0000A0000000D0AB6C1C8A14448543131B33D
:101DB000C9B9A6210D0A0D0ACAAAB6C8CEAA2564B9
:101DC0002E256420A3A5524820A3ACCEC2B6C8CE0F
:101DD000AA2025642E2564A1E6200D0A000000003B
:101DE00052656164204448543131204552524F526B
:101DF000210D0A002573000040420F002C00002036
:101E00000D0AD5FDD4DAD6D8C1ACC8C8B5E3BACD71
:101E1000B7FECEF1C6F7202E2E2E2E2E2E0D0A0046
:101E20000D0AD6D8C1ACC8C8B5E3BACDB7FECEF15D
:101E3000C6F7B3C9B9A60D0A00000000D2B201E08E
:101E400000F8012B491EFBD270470022F6E710B5BF
:101E500013460A4604461946FFF7F0FF204610BD18
:101E600030B505462A460B4612F8010B13F8014B14
:101E700008B1A042F8D01CB1002802D06D1CF1E7D7
:101E8000284630BD30B50B460146002020220124F3
:101E900009E021FA02F59D4205D303FA02F5491B38
:101EA00004FA02F52844151EA2F10102F1DC30BD4E
:101EB000064C074D06E0E06840F0010394E8070097
:101EC00098471034AC42F6D3FEF736F900210008EB
:101ED000202100080FB4054B10B503A9044A02984D
:101EE00000F02CF810BC5DF814FB0000AD100008E9
:101EF000300000200FB4084B10B504A902AA0398C3
:101F000000F01CF8044602A9002000F0F3F8204677
:101F100010BC5DF814FB0000F520000802E008C8C2
:101F2000121F08C1002AFAD170477047002001E053
:101F300001C1121F002AFBD1704700002DE9FF4F9D
:101F40008BB09A460F460546002606E025280BD0A2
:101F500052460D9990476D1C761C28780028F5D1C3
:101F60000FB03046BDE8F08F0024A0460122604942
:101F700000E0044315F8013F203B02FA03F0084259
:101F8000F7D128782E2817D115F8010F44F0040452
:101F90002A280ED06FF02F022878A0F130010929ED
:101FA0000AD808EB880102EB410100EB01086D1C27
:101FB000F2E757F8048B6D1C287869283ED006DCC0
:101FC0000028CDD063280BD0642804D136E07328D4
:101FD00010D075284BD052460D999047761C85E05D
:101FE00017F8040B8DF8000000208DF80100E94679
:101FF000012003E057F8049B4FF0FF3061074FF0DA
:10200000000401D40AE0641C44450DDA8442FADB82
:1020100019F804100029F6D106E0641C8442FCDBA8
:1020200019F804100029F8D1264404E019F8010B2E
:1020300052460D999047641EF8D257E001CF4FF0F9
:102040000A0B002802DA40422D2102E0210504D5C6
:102050002B218DF82410012103E0E10705D0202178
:10206000F7E70DF1200908910CE00021F9E701CF15
:102070004FF00A0BF9E75946FFF704FF01F1300270
:1020800009F8012D0028F6D1ADEB090000F1200B75
:10209000600701D44FF00108D84502DDA8EB0B0022
:1020A00000E000208046002406E009A85246005DBA
:1020B0000D999047641C761C08988442F5DB04E077
:1020C000302052460D999047761CB8F10001A8F1D6
:1020D0000108F5DC05E019F8010B52460D9990470F
:1020E000761CBBF10001ABF1010BF4DC6D1C34E795
:1020F000092801000A68531C0B601070704700002B
:102100002021000800000020340000001C1F0008EF
:102110005421000834000020040800002C1F00088F
:1021200000A24A04000000000000000001020304B5
:10213000060708090000000001020304010203046D
:10214000060708090204060800000000000000005D
:04215000000000008B
:0400000508000131BD
:00000001FF
